{
  "contractName": "lottery",
  "abi": [
    {
      "inputs": [],
      "name": "owner",
      "outputs": [
        {
          "internalType": "address",
          "name": "",
          "type": "address"
        }
      ],
      "stateMutability": "view",
      "type": "function",
      "constant": true
    },
    {
      "inputs": [
        {
          "internalType": "uint256",
          "name": "",
          "type": "uint256"
        }
      ],
      "name": "players",
      "outputs": [
        {
          "internalType": "address",
          "name": "",
          "type": "address"
        }
      ],
      "stateMutability": "view",
      "type": "function",
      "constant": true
    },
    {
      "inputs": [],
      "name": "buyTickets",
      "outputs": [],
      "stateMutability": "payable",
      "type": "function",
      "payable": true
    },
    {
      "inputs": [],
      "name": "pickWinner",
      "outputs": [],
      "stateMutability": "nonpayable",
      "type": "function"
    },
    {
      "inputs": [],
      "name": "showEntries",
      "outputs": [
        {
          "internalType": "address[]",
          "name": "",
          "type": "address[]"
        }
      ],
      "stateMutability": "view",
      "type": "function",
      "constant": true
    }
  ],
  "bytecode": "0x60806040527319a2240bc18eb298878e9922abca00792825b8596000806101000a81548173ffffffffffffffffffffffffffffffffffffffff021916908373ffffffffffffffffffffffffffffffffffffffff16021790555034801561006457600080fd5b506109f4806100746000396000f3fe60806040526004361061004a5760003560e01c80633aa62a0a1461004f5780635d495aea1461007a5780638da5cb5b14610091578063c8199826146100bc578063f71d96cb146100c6575b600080fd5b34801561005b57600080fd5b50610064610103565b604051610071919061064b565b60405180910390f35b34801561008657600080fd5b5061008f610191565b005b34801561009d57600080fd5b506100a66102ed565b6040516100b3919061067c565b60405180910390f35b6100c4610311565b005b3480156100d257600080fd5b506100ed60048036038101906100e891906106d2565b61043f565b6040516100fa919061067c565b60405180910390f35b6060600180548060200260200160405190810160405280929190818152602001828054801561018757602002820191906000526020600020905b8160009054906101000a900473ffffffffffffffffffffffffffffffffffffffff1673ffffffffffffffffffffffffffffffffffffffff168152602001906001019080831161013d575b5050505050905090565b60008054906101000a900473ffffffffffffffffffffffffffffffffffffffff1673ffffffffffffffffffffffffffffffffffffffff163373ffffffffffffffffffffffffffffffffffffffff16146101e957600080fd5b60006001805490506101f961047e565b610203919061072e565b9050600181815481106102195761021861075f565b5b9060005260206000200160009054906101000a900473ffffffffffffffffffffffffffffffffffffffff1673ffffffffffffffffffffffffffffffffffffffff166108fc479081150290604051600060405180830381858888f19350505050158015610289573d6000803e3d6000fd5b50600067ffffffffffffffff8111156102a5576102a461078e565b5b6040519080825280602002602001820160405280156102d35781602001602082028036833780820191505090505b50600190805190602001906102e99291906104b4565b5050565b60008054906101000a900473ffffffffffffffffffffffffffffffffffffffff1681565b600067016345785d8a000034610327919061072e565b1461033157600080fd5b600067016345785d8a00003461034791906107ec565b90505b60008111156103c9576001339080600181540180825580915050600190039060005260206000200160009091909190916101000a81548173ffffffffffffffffffffffffffffffffffffffff021916908373ffffffffffffffffffffffffffffffffffffffff16021790555080806103c19061081d565b91505061034a565b60008054906101000a900473ffffffffffffffffffffffffffffffffffffffff1673ffffffffffffffffffffffffffffffffffffffff166108fc600a3461041091906107ec565b9081150290604051600060405180830381858888f1935050505015801561043b573d6000803e3d6000fd5b5050565b6001818154811061044f57600080fd5b906000526020600020016000915054906101000a900473ffffffffffffffffffffffffffffffffffffffff1681565b60004442600160405160200161049693929190610985565b6040516020818303038152906040528051906020012060001c905090565b82805482825590600052602060002090810192821561052d579160200282015b8281111561052c5782518260006101000a81548173ffffffffffffffffffffffffffffffffffffffff021916908373ffffffffffffffffffffffffffffffffffffffff160217905550916020019190600101906104d4565b5b50905061053a919061053e565b5090565b5b8082111561055757600081600090555060010161053f565b5090565b600081519050919050565b600082825260208201905092915050565b6000819050602082019050919050565b600073ffffffffffffffffffffffffffffffffffffffff82169050919050565b60006105b282610587565b9050919050565b6105c2816105a7565b82525050565b60006105d483836105b9565b60208301905092915050565b6000602082019050919050565b60006105f88261055b565b6106028185610566565b935061060d83610577565b8060005b8381101561063e57815161062588826105c8565b9750610630836105e0565b925050600181019050610611565b5085935050505092915050565b6000602082019050818103600083015261066581846105ed565b905092915050565b610676816105a7565b82525050565b6000602082019050610691600083018461066d565b92915050565b600080fd5b6000819050919050565b6106af8161069c565b81146106ba57600080fd5b50565b6000813590506106cc816106a6565b92915050565b6000602082840312156106e8576106e7610697565b5b60006106f6848285016106bd565b91505092915050565b7f4e487b7100000000000000000000000000000000000000000000000000000000600052601260045260246000fd5b60006107398261069c565b91506107448361069c565b925082610754576107536106ff565b5b828206905092915050565b7f4e487b7100000000000000000000000000000000000000000000000000000000600052603260045260246000fd5b7f4e487b7100000000000000000000000000000000000000000000000000000000600052604160045260246000fd5b7f4e487b7100000000000000000000000000000000000000000000000000000000600052601160045260246000fd5b60006107f78261069c565b91506108028361069c565b925082610812576108116106ff565b5b828204905092915050565b60006108288261069c565b91506000820361083b5761083a6107bd565b5b600182039050919050565b6000819050919050565b61086161085c8261069c565b610846565b82525050565b600081549050919050565b600081905092915050565b60008190508160005260206000209050919050565b61089b816105a7565b82525050565b60006108ad8383610892565b60208301905092915050565b60008160001c9050919050565b600073ffffffffffffffffffffffffffffffffffffffff82169050919050565b60006108f96108f4836108b9565b6108c6565b9050919050565b600061090c82546108e6565b9050919050565b6000600182019050919050565b600061092b82610867565b6109358185610872565b93506109408361087d565b8060005b838110156109785761095582610900565b61095f88826108a1565b975061096a83610913565b925050600181019050610944565b5085935050505092915050565b60006109918286610850565b6020820191506109a18285610850565b6020820191506109b18284610920565b915081905094935050505056fea2646970667358221220321803667c413c92cf8cf0837ea536c38bbe34266b8c48886b01e5e63e9dd4af64736f6c63430008110033",
  "immutableReferences": {},
  "source": "// SPDX-License-Identifier: MIT\npragma solidity >=0.4.22 <0.9.0;\n\ncontract lottery {\n  address public owner = 0x19a2240BC18Eb298878E9922abCa00792825B859;\n  address[] public players;\n\n  function buyTickets() public payable{\n    require(msg.value % 100000000000000000 == 0);\n    uint entryCount = msg.value / 100000000000000000;\n    while (entryCount > 0) {\n      players.push(msg.sender);\n      entryCount--;\n    }\n    \n    payable (owner).transfer(msg.value/10);\n  }\n\n  function random() private view returns (uint) {\n    return uint(keccak256(abi.encodePacked(block.difficulty, block.timestamp, players)));\n  }\n\n  function pickWinner() public {\n    require(msg.sender == owner);\n    uint index = random() % players.length;\n    payable (players[index]).transfer(address(this).balance);\n    players = new address[](0);\n  }\n\n  function showEntries() public view returns (address[] memory){\n    return players;\n  }\n}\n",
  "sourcePath": "C:\\Users\\bmaye\\Desktop\\Projects\\BlockChain\\lottery\\contracts\\lottery.sol",
  "compiler": {
    "name": "solc",
    "version": "0.8.17+commit.8df45f5f.Emscripten.clang"
  },
  "schemaVersion": "3.4.11",
  "updatedAt": "2022-12-09T09:41:26.436Z",
  "networkType": "ethereum",
  "devdoc": {
    "kind": "dev",
    "methods": {},
    "version": 1
  },
  "userdoc": {
    "kind": "user",
    "methods": {},
    "version": 1
  }
}